:100000000C945E000C9486000C9486000C94860080
:100010000C9486000C9486000C9486000C94FE05CB
:100020000C9486000C9486000C9486000C94860038
:100030000C9486000C9486000C9486000C94860028
:100040000C9407020C9486000C94EC060C942F0779
:100050000C9486000C9486000C9486000C94860008
:100060000C9486000C94860000000007000201003A
:100070000003040600000000000000000102040864
:100080001020408001020408102001020408102002
:10009000040404040404040402020202020203032E
:1000A0000303030300000000250028002B000000CC
:1000B0000000240027002A000200EB0711241FBEC5
:1000C000CFEFD8E0DEBFCDBF11E0A0E0B1E0E8EBBC
:1000D000F1E102C005900D92A831B107D9F721E0F6
:1000E000A8E1B1E001C01D92A13EB207E1F710E026
:1000F000CCEBD0E004C02297FE010E94C708CA3BA7
:10010000D107C9F70E946D030C94DA080C94000023
:1001100040E855E260E070E087E391E00E946A0702
:1001200061E08DE00E94FE0260E08DE00E943703F6
:1001300061E08BE00E94FE0261E08AE00E94FE0224
:1001400061E086E00E94FE0261E087E00C94FE021E
:10015000AF92BF92CF92DF92EF92FF920F931F93D5
:1001600087E391E00E945A06892B61F087E391E0D2
:100170000E948306909305018093040187E391E038
:100180000E94A3068091040190910501803E910593
:1001900079F428EE33E040E050E063E870E083E07B
:1001A0000E94C10387E990E09093050180930401C8
:1001B0008091040190910501C397C19758F560E0C3
:1001C0008AE00E943703609104017091050188273D
:1001D00077FD8095982F1F921F921F9221EE2F93EB
:1001E000A12CB12C650114E6E12EF12C00E010E009
:1001F00022E330E040E050E00E947A0370E08BE0C0
:100200000E94A80161E08DE00E9437030F900F90DB
:100210000F900F9080910401909105010197C19773
:1002200058F560E08BE00E94370360910401709103
:100230000501882777FD8095982F1F921F921F92A6
:1002400021EE2F93A12CB12C6501E12CF12C87011B
:1002500022E330E040E050E00E947A03609318010E
:1002600070E08AE00E94A80161E08DE00E943703FF
:100270000F900F900F900F908091040190910501C5
:100280008436910541F460E08AE00E94370361E022
:100290008BE00E9437038091040190910501892B26
:1002A00041F460E08BE00E94370361E08AE00E9445
:1002B00037038091040190910501C29761F460E0D9
:1002C0008BE00E94370360E08AE00E94370360E021
:1002D0008DE00E94370380910401909105018739D8
:1002E000910541F460E086E00E94370360E087E01A
:1002F0000E94370380910401909105018556910970
:10030000C29740F460E087E00E94370361E086E036
:100310000E94370380910401909105018859910949
:10032000C29740F460E086E00E94370361E087E016
:100330000E9437036FE070E080E090E01F910F9122
:10034000FF90EF90DF90CF90BF90AF900C9474022D
:100350001F93CF93DF93182FEB0161E00E94FE0201
:10036000209711F460E004C0CF3FD10539F461E07B
:10037000812FDF91CF911F910C943703E12FF0E093
:10038000E859FF4FE491E330F9F048F4E130B9F077
:10039000E230A1F584B5806284BDC8BD34C0E630CA
:1003A000E9F0E73019F1E43049F58091800080628E
:1003B00080938000D0938B00C0938A0024C084B5C2
:1003C000806884BDC7BD1FC0809180008068809315
:1003D0008000D0938900C093880015C08091B00040
:1003E00080688093B000C093B3000DC08091B000CE
:1003F00080628093B000C093B40005C0C038D105BE
:100400000CF0B5CFAFCFDF91CF911F9108951F9220
:100410000F920FB60F9211242F933F938F939F93B8
:10042000AF93BF9380911A0190911B01A0911C0181
:10043000B0911D013091190123E0230F2D3720F4D5
:100440000196A11DB11D05C026E8230F0296A11D2E
:10045000B11D2093190180931A0190931B01A09361
:100460001C01B0931D0180911E0190911F01A0916C
:100470002001B09121010196A11DB11D80931E01A3
:1004800090931F01A0932001B0932101BF91AF91E0
:100490009F918F913F912F910F900FBE0F901F90C2
:1004A00018953FB7F89480911E0190911F01A0917B
:1004B0002001B091210126B5A89B05C02F3F19F05E
:1004C0000196A11DB11D3FBF6627782F892F9A2F56
:1004D000620F711D811D911D42E0660F771F881FFD
:1004E000991F4A95D1F70895CF92DF92EF92FF922C
:1004F000CF93DF936B017C010E945102EB01C11489
:10050000D104E104F10479F00E9451026C1B7D0BCF
:10051000683E7340A0F381E0C81AD108E108F108F1
:10052000C851DC4FECCFDF91CF91FF90EF90DF907F
:10053000CF900895789484B5826084BD84B581603D
:1005400084BD85B5826085BD85B5816085BDEEE6DB
:10055000F0E0808181608083E1E8F0E010828081BA
:1005600082608083808181608083E0E8F0E0808128
:1005700081608083E1EBF0E0808184608083E0EB48
:10058000F0E0808181608083EAE7F0E08081846030
:10059000808380818260808380818160808380818C
:1005A000806880831092C1000895833081F028F420
:1005B000813099F08230A1F008958630A9F087301B
:1005C000B9F08430D1F4809180008F7D03C0809198
:1005D00080008F7780938000089584B58F7702C064
:1005E00084B58F7D84BD08958091B0008F7703C05E
:1005F0008091B0008F7D8093B0000895CF93DF93FA
:1006000090E0FC01E458FF4F2491FC01E057FF4FBC
:100610008491882349F190E0880F991FFC01E255ED
:10062000FF4FA591B4918C559F4FFC01C591D4917A
:100630009FB7611108C0F8948C91209582238C9308
:10064000888182230AC0623051F4F8948C91322F51
:10065000309583238C938881822B888304C0F894FF
:100660008C91822B8C939FBFDF91CF9108950F9334
:100670001F93CF93DF931F92CDB7DEB7282F30E0C3
:10068000F901E859FF4F8491F901E458FF4F1491A3
:10069000F901E057FF4F04910023C9F0882321F0AE
:1006A00069830E94D5026981E02FF0E0EE0FFF1F01
:1006B000EC55FF4FA591B4919FB7F8948C916111BF
:1006C00003C01095812301C0812B8C939FBF0F9095
:1006D000DF91CF911F910F9108950E949A020E947D
:1006E0008800C6E2D7E00E94A8002097E1F30E94AC
:1006F0002607F9CF4F925F926F927F92AF92BF928F
:10070000CF92DF92EF92FF920F931F93CF93DF93DD
:10071000CDB7DEB729013A01621B730B840B950B31
:1007200029893A894B895C892A193B094C095D0959
:10073000298B3A8B4B8B5C8B9B01AC0169897A8945
:100740008B899C890E946908E418F5080609170935
:10075000A80197010E949B082A0D3B1D4C1D5D1DA1
:10076000CA01B901DF91CF911F910F91FF90EF90D6
:10077000DF90CF90BF90AF907F906F905F904F9041
:1007800008953F924F925F926F927F928F929F92C5
:10079000AF92BF92CF92DF92EF92FF920F931F938F
:1007A000CF93DF9300D000D0CDB7DEB78B01290106
:1007B0003A0190910601981721F09F3F09F0D3C1AB
:1007C00004C0E8EBF0E0349081C080930601E8EBD0
:1007D000F0E0E491EF3F09F4C6C1E13031F1E230DD
:1007E00009F44BC0E11171C014BC15BC94B5926002
:1007F00094BD95B5916095BD282F30E0F901E05783
:10080000FF4FE491F0E0EE0FFF1FEC55FF4F4591D5
:1008100054915093320140933101F901E458FF4F54
:10082000249120933001312C53C0109280001092FB
:100830008100909181009860909381009091810057
:10084000916090938100282F30E0F901E057FF4F2D
:10085000E491F0E0EE0FFF1FEC55FF4F45915491EE
:1008600050932B0140932A01F901E458FF4F249142
:1008700020932901332433942BC01092B00010929E
:10088000B1009091B00092609093B0009091B1004F
:1008900091609093B100282F30E0F901E057FF4FAD
:1008A000E491F0E0EE0FFF1FEC55FF4F459154919E
:1008B0005093240140932301F901E458FF4F249100
:1008C0002093220152E0352E03C03E2E37FC4BC14F
:1008D00061E00E94FE024801A12CB12C832D8D7F86
:1008E00009F0C0C060E072E18AE790E0A5019401E0
:1008F0000E949B0829833A834B835C8369017A01B8
:1009000081E0C81AD108E108F1089FEFC916D104A7
:10091000E104F10409F008F49AC060E472E48FE0A5
:1009200090E0A50194010E949B0869017A01E1E031
:10093000CE1AD108E108F108F2E03F1219C08FEF9A
:10094000C816D104E104F10409F008F487C060E995
:1009500070ED83E090E0A50194010E949B0869017D
:100960007A0191E0C91AD108E108F10883E001C0D9
:1009700082E0EFEFCE16D104E104F10409F008F4AF
:1009800067C068E478EE81E090E0A50194010E94E0
:100990009B0869017A01F1E0CF1AD108E108F1085A
:1009A0003320E1F082E038121BC09FEFC916D1045A
:1009B000E104F10409F008F4D4C064E274EF80E0CB
:1009C00090E0A50194010E949B0869017A01E1E091
:1009D000CE1AD108E108F10885E003C083E001C028
:1009E00084E0FFEFCF16D104E104F10489F180F136
:1009F00062E17AE780E090E0A50194010E949B0803
:100A000069017A0181E0C81AD108E108F1083110C2
:100A100002C084E001C086E09FEFC916D104E10462
:100A2000F104B1F0A8F0C980DA80EB80FC809AE094
:100A3000F594E794D794C7949A95D1F7E1E0CE1A4C
:100A4000D108E108F108332031F087E008C081E0E7
:100A5000332011F004C085E085BD34C082E080936E
:100A6000B10030C060E072E18AE790E0A501940136
:100A70000E949B0869017A01F1E0CF1AD108E108D0
:100A8000F108C114D10481E0E806F10488F068E4BB
:100A900078EE81E090E0A50194010E949B08690135
:100AA0007A0191E0C91AD108E108F10893E001C088
:100AB00091E0E1E03E1206C080918100887F892BA1
:100AC00080938100411451046104710471F0D801D4
:100AD000AA0FBB1FA30192010E94BA0828EE33E0BF
:100AE00040E050E00E94790803C02FEF3FEFA901DA
:100AF000F1E03F16A1F082E0381619F1311033C051
:100B0000C7BC209333013093340140933501509397
:100B1000360180916E00826080936E0024C0D09276
:100B20008900C092880020932C0130932D014093BE
:100B30002E0150932F0180916F00826080936F008F
:100B400012C0C092B3002093250130932601409338
:100B5000270150932801809170008260809370007B
:100B600002C084E07CCF0F900F900F900F90DF9128
:100B7000CF911F910F91FF90EF90DF90CF90BF909A
:100B8000AF909F908F907F906F905F904F903F902D
:100B90000895813039F018F0823051F008951092A4
:100BA0006E00089580916F008D7F80936F0008958F
:100BB000809170008D7F8093700081E08093B00001
:100BC0008091B100887F84608093B1001092B3005F
:100BD0000895CF93C82F809106018C1307C0E8EBCE
:100BE000F0E084919FEF9093060101C08FEF0E9487
:100BF000C90560E08C2FCF910C9437031F920F92A0
:100C00000FB60F9211242F933F934F935F936F93DF
:100C10007F938F939F93AF93BF93EF93FF938091B5
:100C2000250190912601A0912701B0912801892BDF
:100C30008A2B8B2B51F190912201E0912301F091AD
:100C4000240180818927808380912501909126014C
:100C5000A0912701B0912801181619061A061B0643
:100C6000C4F48091250190912601A0912701B091B3
:100C700028010197A109B1098093250190932601CC
:100C8000A0932701B093280104C0809106010E941F
:100C9000E905FF91EF91BF91AF919F918F917F9166
:100CA0006F915F914F913F912F910F900FBE0F90D9
:100CB0001F901895FC0124853585F901E05CFF4FF4
:100CC00080819181329620813181821B930B8F73B9
:100CD00099270895FC0184859585FC01E05CFF4F10
:100CE000408151813296208131814217530741F072
:100CF0000190F081E02DE80FF91F808190E00895C8
:100D00008FEF9FEF0895FC0184859585FC01E05CE1
:100D1000FF4F408151813296208131814217530724
:100D200079F0A081B181A80FB91F8C912081318108
:100D30002F5F3F4F2F7333273183208390E0089537
:100D40008FEF9FEF0895FC0181A1882329F0A489EA
:100D5000B5898C9186FFFBCF11A20895CF93DF93C5
:100D6000FC0126853785D901A05CBF4F8D919C91F0
:100D7000119701968F739927E901CE5BDF4F488168
:100D8000598184179507D9F30D90BC91A02DA20F1E
:100D9000B31F6C93A685B785A05CBF4F11969C933B
:100DA0008E93A689B7892C9181E090E0078C02C0D0
:100DB000880F991F0A94E2F7282B2C9381E081A3D6
:100DC0000488F589E02D80818064808381E090E053
:100DD000DF91CF91089508951F920F920FB60F9251
:100DE00011242F933F934F938F939F93EF93FF93F0
:100DF0008091C00082FD1CC04091C6008091DD0141
:100E00009091DE0101968F7399272091DF01309137
:100E1000E0018217930771F0E091DD01F091DE01AE
:100E2000E356FE4F40839093DE018093DD0102C0C4
:100E30008091C600FF91EF919F918F914F913F91CB
:100E40002F910F900FBE0F901F90189587E391E0A0
:100E50000E945A06892B11F00C94EB0608951F92FC
:100E60000F920FB60F9211242F933F938F939F935E
:100E7000EF93FF932091990130919A0180919B010A
:100E800090919C012817390731F48091C1008F7D22
:100E90008093C10014C0E0919B01F0919C01E75A3E
:100EA000FE4F208180919B0190919C0101968F7350
:100EB000992790939C0180939B012093C600FF91FA
:100EC000EF919F918F913F912F910F900FBE0F90B7
:100ED0001F901895CF92DF92EF92FF92CF93DF93FE
:100EE000EC016A017B01411581EE5807610571052E
:100EF000F9F0EC89FD8981E090E008A002C0880F3C
:100F0000991F0A94E2F7808360E079E08DE390E036
:100F1000A70196010E947908215031094109510920
:100F20005695479537952795211580E1380798F014
:100F3000EC89FD89108260E874E88EE190E0A701F9
:100F400096010E94790821503109410951095695AD
:100F5000479537952795E889F9893083EA89FB8990
:100F6000208319A2EE89FF89408181E090E09C01F5
:100F70000C8C02C0220F331F0A94E2F7422B4083ED
:100F8000EE89FF8940819C010D8C02C0220F331F26
:100F90000A94E2F7422B4083EE89FF8940819C014D
:100FA0000E8C02C0220F331F0A94E2F7422B4083BB
:100FB000EE89FF8920810F8C02C0880F991F0A9447
:100FC000E2F7809582238083DF91CF91FF90EF90AD
:100FD000DF90CF90089510923A011092390188EE77
:100FE00093E0A0E0B0E080933B0190933C01A0939C
:100FF0003D01B0933E018BE091E0909338018093E6
:1010000037018DE991E0909344018093430189E594
:1010100091E0909346018093450185EC90E0909398
:1010200048018093470184EC90E090934A018093BB
:10103000490180EC90E090934C0180934B0181EC4E
:1010400090E090934E0180934D0182EC90E090935C
:10105000500180934F0186EC90E090935201809371
:10106000510184E08093530183E08093540187E031
:101070008093550185E08093560181E0809357016C
:101080000895CF92DF92EF92FF920F931F93CF9329
:10109000DF936C017A01EB01E60EF71E00E010E031
:1010A000CE15DF0561F06991D601ED91FC910190BB
:1010B000F081E02DC6010995080F191FF1CFC80175
:1010C000DF91CF911F910F91FF90EF90DF90CF9024
:1010D0000895DB018F939F930E94BA08BF91AF914F
:1010E000A29F800D911DA39F900DB29F900D112482
:1010F0000895A1E21A2EAA1BBB1BFD010DC0AA1F59
:10110000BB1FEE1FFF1FA217B307E407F50720F070
:10111000A21BB30BE40BF50B661F771F881F991FEB
:101120001A9469F760957095809590959B01AC0134
:10113000BD01CF010895052E97FB1EF400940E9477
:10114000B20857FD07D00E94790807FC03D04EF47F
:101150000C94B20850954095309521953F4F4F4FD4
:101160005F4F089590958095709561957F4F8F4F53
:101170009F4F08950E94CB08A59F900DB49F900D9E
:10118000A49F800D911D11240895EE0FFF1F05905F
:10119000F491E02D0994A29FB001B39FC001A39FD9
:1011A000700D811D1124911DB29F700D811D1124A0
:0811B000911D0895F894FFCF92
:1011B800010000009700FF00000000AE0641085A39
:0811C8000683066A06A3060077
:00000001FF
