:100000000C945D000C9485000C9485000C94850084
:100010000C9485000C9485000C9485000C9485004C
:100020000C9485000C9485000C9485000C9485003C
:100030000C9485000C9485000C9485000C9485002C
:100040000C940D020C9485000C9441050C948405CD
:100050000C9485000C9485000C9485000C9485000C
:100060000C9485000C94850000000007000201003C
:100070000003040600000000000000000102040864
:100080001020408001020408102001020408102002
:10009000040404040404040402020202020203032E
:1000A0000303030300000000250028002B000000CC
:1000B0000000240027002A00400611241FBECFEFB5
:1000C000D8E0DEBFCDBF11E0A0E0B1E0E2E1FEE0AC
:1000D00002C005900D92A232B107D9F721E0A2E249
:1000E000B1E001C01D92A63DB207E1F710E0CAEBF6
:1000F000D0E004C02297FE010E94F406C83BD1075D
:10010000C9F70E9473030C9407070C94000040E8A1
:1001100055E260E070E08CE291E00E94BF0561E092
:100120008DE00E94040360E08DE00E943D0361E0E9
:100130008BE00E94040361E08AE00E94040361E016
:1001400086E00E94040361E087E00C940403AF9210
:10015000BF92CF92DF92EF92FF920F931F93CF93B4
:100160008CE291E00E94AF04892B61F08CE291E077
:100170000E94D80490930501809304018CE291E0E1
:100180000E94F8048091040190910501803E910540
:1001900021F461E08DE00E943D0380910401909183
:1001A0000501C397C19778F560E08AE00E943D039E
:1001B0006091040170910501882777FD8095982F43
:1001C0001F921F921F9221EE2F93A12CB12C65013B
:1001D00014E6E12EF12C00E010E022E330E040E0F4
:1001E00050E00E948003C62F4AE050E08CE291E08C
:1001F0000E9498046C2F70E08BE00E94AE010F907B
:100200000F900F900F90809104019091050101973C
:10021000C19778F560E08BE00E943D036091040196
:1002200070910501882777FD8095982F1F921F9266
:100230001F9221EE2F93A12CB12C6501E12CF12C02
:10024000870122E330E040E050E00E9480036093A9
:1002500022014AE050E08CE291E00E949804609113
:10026000220170E08AE00E94AE010F900F900F9083
:100270000F9080910401909105018436910541F41D
:1002800060E08AE00E943D0361E08BE00E943D0354
:100290008091040190910501892B41F460E08BE08D
:1002A0000E943D0361E08AE00E943D0380910401C9
:1002B00090910501C29741F460E08BE00E943D03FC
:1002C00060E08AE00E943D03809104019091050165
:1002D0008739910541F460E086E00E943D0360E0CB
:1002E00087E00E943D0380910401909105018556AD
:1002F0009109C29770F460E087E00E943D0361E0DD
:1003000086E00E943D0366E071E08CE291E00E948D
:100310002004809104019091050188599109C297A8
:1003200070F460E086E00E943D0361E087E00E9497
:100330003D036BE071E08CE291E00E9420046FE0ED
:1003400070E080E090E0CF911F910F91FF90EF90CF
:10035000DF90CF90BF90AF900C947A021F93CF9311
:10036000DF93182FEB0161E00E940403209711F442
:1003700060E004C0CF3FD10539F461E0812FDF9107
:10038000CF911F910C943D03E12FF0E0E859FF4F0E
:10039000E491E330F9F048F4E130B9F0E230A1F54E
:1003A00084B5806284BDC8BD34C0E630E9F0E73072
:1003B00019F1E43049F580918000806280938000DB
:1003C000D0938B00C0938A0024C084B5806884BD1C
:1003D000C7BD1FC080918000806880938000D0934B
:1003E0008900C093880015C08091B0008068809318
:1003F000B000C093B3000DC08091B00080628093C4
:10040000B000C093B40005C0C038D1050CF0B5CF22
:10041000AFCFDF91CF911F9108951F920F920FB62A
:100420000F9211242F933F938F939F93AF93BF937A
:100430008091240190912501A0912601B09127017E
:100440003091230123E0230F2D3720F40196A11DC5
:10045000B11D05C026E8230F0296A11DB11D2093F2
:1004600023018093240190932501A0932601B0934A
:1004700027018091280190912901A0912A01B09132
:100480002B010196A11DB11D809328019093290194
:10049000A0932A01B0932B01BF91AF919F918F91AF
:1004A0003F912F910F900FBE0F901F9018953FB75F
:1004B000F8948091280190912901A0912A01B0918E
:1004C0002B0126B5A89B05C02F3F19F00196A11D51
:1004D000B11D3FBF6627782F892F9A2F620F711D9C
:1004E000811D911D42E0660F771F881F991F4A9555
:1004F000D1F70895CF92DF92EF92FF92CF93DF93DF
:100500006B017C010E945702EB01C114D104E1048C
:10051000F10479F00E9457026C1B7D0B683E73401A
:10052000A0F381E0C81AD108E108F108C851DC4FF6
:10053000ECCFDF91CF91FF90EF90DF90CF900895B7
:10054000789484B5826084BD84B5816084BD85B5AE
:10055000826085BD85B5816085BDEEE6F0E0808175
:1005600081608083E1E8F0E0108280818260808396
:10057000808181608083E0E8F0E080818160808319
:10058000E1EBF0E0808184608083E0EBF0E080814B
:1005900081608083EAE7F0E08081846080838081ED
:1005A0008260808380818160808380818068808395
:1005B0001092C1000895833081F028F4813099F0C1
:1005C0008230A1F008958630A9F08730B9F08430E8
:1005D000D1F4809180008F7D03C0809180008F775F
:1005E00080938000089584B58F7702C084B58F7D95
:1005F00084BD08958091B0008F7703C08091B000D2
:100600008F7D8093B0000895CF93DF9390E0FC013D
:10061000E458FF4F2491FC01E057FF4F8491882359
:1006200049F190E0880F991FFC01E255FF4FA59119
:10063000B4918C559F4FFC01C591D4919FB7611126
:1006400008C0F8948C91209582238C938881822312
:100650000AC0623051F4F8948C91322F3095832384
:100660008C938881822B888304C0F8948C91822B90
:100670008C939FBFDF91CF9108950F931F93CF93DA
:10068000DF931F92CDB7DEB7282F30E0F901E8598C
:10069000FF4F8491F901E458FF4F1491F901E0579D
:1006A000FF4F04910023C9F0882321F069830E9441
:1006B000DB026981E02FF0E0EE0FFF1FEC55FF4FEA
:1006C000A591B4919FB7F8948C91611103C01095D6
:1006D000812301C0812B8C939FBF0F90DF91CF911D
:1006E0001F910F9108950E94A0020E948700CBE7FE
:1006F000D5E00E94A7002097E1F30E947B05F9CF87
:100700004F925F926F927F92AF92BF92CF92DF92A1
:10071000EF92FF920F931F93CF93DF93CDB7DEB786
:1007200029013A01621B730B840B950B29893A89C5
:100730004B895C892A193B094C095D09298B3A8B45
:100740004B8B5C8B9B01AC0169897A898B899C8975
:100750000E949606E418F50806091709A8019701F2
:100760000E94C8062A0D3B1D4C1D5D1DCA01B90122
:10077000DF91CF911F910F91FF90EF90DF90CF907D
:10078000BF90AF907F906F905F904F900895CF9201
:10079000DF92EF92FF920F931F93CF93DF936C0141
:1007A0007A01EB01E60EF71E00E010E0CE15DF0542
:1007B00061F06991D601ED91FC910190F081E02DFD
:1007C000C6010995080F191FF1CFC801DF91CF911C
:1007D0001F910F91FF90EF90DF90CF9008956115DA
:1007E000710581F0DB010D900020E9F7AD0141506A
:1007F0005109461B570BDC01ED91FC910280F381FE
:10080000E02D099480E090E00895DC01ED91FC91E9
:100810000190F081E02D09940F931F93CF93DF9304
:10082000EC016DE00E9405048C016AE0CE010E949B
:100830000504800F911FDF91CF911F910F910895B3
:100840000F931F93CF93DF93EC010E94EF038C0172
:10085000CE010E940C04800F911FDF91CF911F9158
:100860000F9108958F929F92AF92BF92CF92DF9295
:10087000EF92FF920F931F93CF93DF93CDB7DEB725
:10088000A1970FB6F894DEBF0FBECDBF7C01C42E7A
:10089000E52FCB01D22E19A221E02D1510F02AE070
:1008A000D22E8E010F5D1F4F8D2C912CA12CB12CBF
:1008B0006C2D7E2FA50194010E94A6068C2DD29E40
:1008C00080191124015011098A3014F4805D01C08F
:1008D000895CF8018083211531054105510521F01E
:1008E000C22EE32FCA01E4CFB801C7010E94EF0373
:1008F000A1960FB6F894DEBF0FBECDBFDF91CF91AA
:100900001F910F91FF90EF90DF90CF90BF90AF902D
:100910009F908F9008952115310541F4DC01ED91F0
:10092000FC910190F081E02D642F09940C94320425
:100930000F931F93CF93DF93EC019A01462F50E062
:1009400060E070E00E948B048C01CE010E940C04D8
:10095000800F911FDF91CF911F910F910895FC019E
:1009600024853585F901E05CFF4F808191813296C5
:1009700020813181821B930B8F7399270895FC018D
:1009800084859585FC01E05CFF4F40815181329662
:10099000208131814217530741F00190F081E02D11
:1009A000E80FF91F808190E008958FEF9FEF089581
:1009B000FC0184859585FC01E05CFF4F40815181FD
:1009C0003296208131814217530779F0A081B1819D
:1009D000A80FB91F8C91208131812F5F3F4F2F735A
:1009E00033273183208390E008958FEF9FEF0895A0
:1009F000FC0181A1882329F0A489B5898C9186FF07
:100A0000FBCF11A20895CF93DF93FC012685378594
:100A1000D901A05CBF4F8D919C91119701968F7366
:100A20009927E901CE5BDF4F4881598184179507EB
:100A3000D9F30D90BC91A02DA20FB31F6C93A68586
:100A4000B785A05CBF4F11969C938E93A689B789FA
:100A50002C9181E090E0078C02C0880F991F0A94C6
:100A6000E2F7282B2C9381E081A30488F589E02DFF
:100A700080818064808381E090E0DF91CF91089550
:100A800008951F920F920FB60F9211242F933F9348
:100A90004F938F939F93EF93FF938091C00082FDBC
:100AA0001CC04091C6008091D2019091D301019663
:100AB0008F7399272091D4013091D5018217930724
:100AC00071F0E091D201F091D301EE56FE4F4083D8
:100AD0009093D3018093D20102C08091C600FF9110
:100AE000EF919F918F914F913F912F910F900FBE5A
:100AF0000F901F9018958CE291E00E94AF04892B13
:100B000011F00C94400508951F920F920FB60F92AA
:100B100011242F933F938F939F93EF93FF932091F3
:100B20008E0130918F018091900190919101281751
:100B3000390731F48091C1008F7D8093C10014C0CA
:100B4000E0919001F0919101E25BFE4F2081809154
:100B500090019091910101968F7399279093910143
:100B6000809390012093C600FF91EF919F918F9108
:100B70003F912F910F900FBE0F901F901895CF921D
:100B8000DF92EF92FF92CF93DF93EC016A017B013A
:100B9000411581EE580761057105F9F0EC89FD8971
:100BA00081E090E008A002C0880F991F0A94E2F744
:100BB000808360E079E08DE390E0A70196010E94D8
:100BC000A606215031094109510956954795379597
:100BD0002795211580E1380798F0EC89FD8910826E
:100BE00060E874E88EE190E0A70196010E94A606F5
:100BF0002150310941095109569547953795279557
:100C0000E889F9893083EA89FB89208319A2EE8972
:100C1000FF89408181E090E09C010C8C02C0220F92
:100C2000331F0A94E2F7422B4083EE89FF8940810B
:100C30009C010D8C02C0220F331F0A94E2F7422B55
:100C40004083EE89FF8940819C010E8C02C0220FF7
:100C5000331F0A94E2F7422B4083EE89FF892081FB
:100C60000F8C02C0880F991F0A94E2F780958223A7
:100C70008083DF91CF91FF90EF90DF90CF90089528
:100C800010922F0110922E0188EE93E0A0E0B0E0C8
:100C90008093300190933101A0933201B0933301DE
:100CA00085E191E090932D0180932C0182E991E000
:100CB00090933901809338018EE491E090933B0149
:100CC00080933A0185EC90E090933D0180933C0144
:100CD00084EC90E090933F0180933E0180EC90E0A3
:100CE000909341018093400181EC90E09093430107
:100CF0008093420182EC90E09093450180934401FF
:100D000086EC90E0909347018093460184E08093C5
:100D1000480183E08093490187E080934A0185E0A0
:100D200080934B0181E080934C010895DB018F9308
:100D30009F930E94E706BF91AF91A29F800D911DE6
:100D4000A39F900DB29F900D11240895A1E21A2E39
:100D5000AA1BBB1BFD010DC0AA1FBB1FEE1FFF1F5F
:100D6000A217B307E407F50720F0A21BB30BE40BAF
:100D7000F50B661F771F881F991F1A9469F76095F6
:100D80007095809590959B01AC01BD01CF010895B0
:100D9000052E97FB1EF400940E94DF0657FD07D036
:100DA0000E94A60607FC03D04EF40C94DF06509573
:100DB0004095309521953F4F4F4F5F4F0895909547
:100DC0008095709561957F4F8F4F9F4F08950E943A
:100DD000F806A59F900DB49F900DA49F800D911DC6
:100DE00011240895EE0FFF1F0590F491E02D099452
:100DF000A29FB001B39FC001A39F700D811D11245C
:100E0000911DB29F700D811D1124911D0895F894BC
:020E1000FFCF12
:100E12000100000096006C65667400726967687470
:100E220000000000000305C703AF04D804BF04F8A4
:020E32000400BA
:00000001FF
