:100000000C945D000C9485000C9485000C94850084
:100010000C9485000C9485000C9485000C9485004C
:100020000C9485000C9485000C9485000C9485003C
:100030000C9485000C9485000C9485000C9485002C
:100040000C94C2010C9485000C94E4040C942705D4
:100050000C9485000C9485000C9485000C9485000C
:100060000C9485000C94850000000007000201003C
:100070000003040600000000000000000102040864
:100080001020408001020408102001020408102002
:10009000040404040404040402020202020203032E
:1000A0000303030300000000250028002B000000CC
:1000B0000000240027002A00E30511241FBECFEF13
:1000C000D8E0DEBFCDBF11E0A0E0B1E0E8E5FDE0A3
:1000D00002C005900D92A631B107D9F721E0A6E143
:1000E000B1E001C01D92AA3CB207E1F710E0CAEBF3
:1000F000D0E004C02297FE010E949706C83BD107BA
:10010000C9F70E9428030C94AA060C94000040E84A
:1001100055E260E070E080E291E00E94620561E0FB
:100120008DE00E94B90260E08DE00C94F202AF9283
:10013000BF92CF92DF92EF92FF920F931F93CF93D4
:1001400080E291E00E945204892B61F080E291E00C
:100150000E947B04909305018093040180E291E06A
:100160000E949B0480910401909105018C32914082
:1001700021F461E08DE00E94F202809104019091EF
:100180000501C397C19778F560E08AE00E94F2020A
:100190006091040170910501882777FD8095982F63
:1001A0001F921F921F9221EE2F93A12CB12C65015B
:1001B00014E6E12EF12C00E010E022E330E040E014
:1001C00050E00E943503C62F4AE050E080E291E003
:1001D0000E943B046C2F70E08BE00E9463010F9043
:1001E0000F900F900F90809104019091050101975D
:1001F000C19778F560E08BE00E94F2026091040103
:1002000070910501882777FD8095982F1F921F9286
:100210001F9221EE2F93A12CB12C6501E12CF12C22
:10022000870122E330E040E050E00E943503609314
:1002300016014AE050E080E291E00E943B046091A8
:10024000160170E08AE00E9463010F900F900F90FA
:100250000F9080910401909105018436910541F43D
:1002600060E08AE00E94F20261E08BE00E94F2020C
:100270008091040190910501892B41F460E08BE0AD
:100280000E94F20261E08AE00E94F2028091040181
:1002900090910501C29741F460E08BE00E94F20268
:1002A00060E08AE00E94F2026FE070E080E090E09F
:1002B000CF911F910F91FF90EF90DF90CF90BF9063
:1002C000AF900C942F021F93CF93DF93182FEB0165
:1002D00061E00E94B902209711F460E004C0CF3FB2
:1002E000D10539F461E0812FDF91CF911F910C94FA
:1002F000F202E12FF0E0E859FF4FE491E330F9F02A
:1003000048F4E130B9F0E230A1F584B5806284BDF3
:10031000C8BD34C0E630E9F0E73019F1E43049F502
:1003200080918000806280938000D0938B00C09386
:100330008A0024C084B5806884BDC7BD1FC0809179
:100340008000806880938000D0938900C0938800EB
:1003500015C08091B00080688093B000C093B30056
:100360000DC08091B00080628093B000C093B40053
:1003700005C0C038D1050CF0B5CFAFCFDF91CF911C
:100380001F9108951F920F920FB60F9211242F9371
:100390003F938F939F93AF93BF9380911801909158
:1003A0001901A0911A01B0911B013091170123E0AE
:1003B000230F2D3720F40196A11DB11D05C026E89D
:1003C000230F0296A11DB11D2093170180931801E0
:1003D00090931901A0931A01B0931B0180911C0105
:1003E00090911D01A0911E01B0911F010196A11DC8
:1003F000B11D80931C0190931D01A0931E01B09329
:100400001F01BF91AF919F918F913F912F910F90BD
:100410000FBE0F901F9018953FB7F89480911C0164
:1004200090911D01A0911E01B0911F0126B5A89BBE
:1004300005C02F3F19F00196A11DB11D3FBF6627D2
:10044000782F892F9A2F620F711D811D911D42E017
:10045000660F771F881F991F4A95D1F70895CF928D
:10046000DF92EF92FF92CF93DF936B017C010E94AA
:100470000C02EB01C114D104E104F10479F00E94F3
:100480000C026C1B7D0B683E7340A0F381E0C81A20
:10049000D108E108F108C851DC4FECCFDF91CF91D2
:1004A000FF90EF90DF90CF900895789484B58260AC
:1004B00084BD84B5816084BD85B5826085BD85B508
:1004C000816085BDEEE6F0E0808181608083E1E8B7
:1004D000F0E01082808182608083808181608083EF
:1004E000E0E8F0E0808181608083E1EBF0E08081F2
:1004F00084608083E0EBF0E0808181608083EAE7C4
:10050000F0E080818460808380818260808380814C
:10051000816080838081806880831092C10008950B
:10052000833081F028F4813099F08230A1F0089571
:100530008630A9F08730B9F08430D1F48091800002
:100540008F7D03C0809180008F7780938000089515
:1005500084B58F7702C084B58F7D84BD0895809166
:10056000B0008F7703C08091B0008F7D8093B00082
:100570000895CF93DF9390E0FC01E458FF4F24915E
:10058000FC01E057FF4F8491882349F190E0880FE8
:10059000991FFC01E255FF4FA591B4918C559F4FD7
:1005A000FC01C591D4919FB7611108C0F8948C915A
:1005B000209582238C93888182230AC0623051F473
:1005C000F8948C91322F309583238C938881822BE1
:1005D000888304C0F8948C91822B8C939FBFDF9109
:1005E000CF9108950F931F93CF93DF931F92CDB7B1
:1005F000DEB7282F30E0F901E859FF4F8491F90167
:10060000E458FF4F1491F901E057FF4F0491002384
:10061000C9F0882321F069830E9490026981E02F4C
:10062000F0E0EE0FFF1FEC55FF4FA591B4919FB77F
:10063000F8948C91611103C01095812301C0812B26
:100640008C939FBF0F90DF91CF911F910F910895D1
:100650000E9455020E948700CEE1D5E00E949700DB
:100660002097E1F30E941E05F9CF4F925F926F929F
:100670007F92AF92BF92CF92DF92EF92FF920F9351
:100680001F93CF93DF93CDB7DEB729013A01621BE9
:10069000730B840B950B29893A894B895C892A193C
:1006A0003B094C095D09298B3A8B4B8B5C8B9B0179
:1006B000AC0169897A898B899C890E943906E41882
:1006C000F50806091709A80197010E946B062A0D73
:1006D0003B1D4C1D5D1DCA01B901DF91CF911F91DA
:1006E0000F91FF90EF90DF90CF90BF90AF907F90F1
:1006F0006F905F904F900895CF92DF92EF92FF92AC
:100700000F931F93CF93DF936C017A01EB01E60EF9
:10071000F71E00E010E0CE15DF0561F06991D6010B
:10072000ED91FC910190F081E02DC6010995080F33
:10073000191FF1CFC801DF91CF911F910F91FF9049
:10074000EF90DF90CF9008956115710581F0DB0186
:100750000D900020E9F7AD0141505109461B570BA0
:10076000DC01ED91FC910280F381E02D099480E0A1
:1007700090E00895DC01ED91FC910190F081E02D75
:1007800009940F931F93CF93DF93EC016DE00E94C8
:10079000BA038C016AE0CE010E94BA03800F911F58
:1007A000DF91CF911F910F9108958F929F92AF92F9
:1007B000BF92CF92DF92EF92FF920F931F93CF934E
:1007C000DF93CDB7DEB7A1970FB6F894DEBF0FBEAB
:1007D000CDBF7C01C42EE52FCB01D22E19A221E082
:1007E0002D1510F02AE0D22E8E010F5D1F4F8D2C9B
:1007F000912CA12CB12C6C2D7E2FA50194010E946F
:1008000049068C2DD29E80191124015011098A307D
:1008100014F4805D01C0895CF801808321153105E5
:100820004105510521F0C22EE32FCA01E4CFB801E2
:10083000C7010E94A403A1960FB6F894DEBF0FBEB5
:10084000CDBFDF91CF911F910F91FF90EF90DF907F
:10085000CF90BF90AF909F908F9008952115310554
:1008600041F4DC01ED91FC910190F081E02D642FC9
:1008700009940C94D5030F931F93CF93DF93EC014E
:100880009A01462F50E060E070E00E942E048C0137
:10089000CE010E94C103800F911FDF91CF911F9164
:1008A0000F910895FC0124853585F901E05CFF4F27
:1008B00080819181329620813181821B930B8F73CD
:1008C00099270895FC0184859585FC01E05CFF4F24
:1008D000408151813296208131814217530741F086
:1008E0000190F081E02DE80FF91F808190E00895DC
:1008F0008FEF9FEF0895FC0184859585FC01E05CF6
:10090000FF4F408151813296208131814217530738
:1009100079F0A081B181A80FB91F8C91208131811C
:100920002F5F3F4F2F7333273183208390E008954B
:100930008FEF9FEF0895FC0181A1882329F0A489FE
:10094000B5898C9186FFFBCF11A20895CF93DF93D9
:10095000FC0126853785D901A05CBF4F8D919C9104
:10096000119701968F739927E901CE5BDF4F48817C
:10097000598184179507D9F30D90BC91A02DA20F32
:10098000B31F6C93A685B785A05CBF4F11969C934F
:100990008E93A689B7892C9181E090E0078C02C0E4
:1009A000880F991F0A94E2F7282B2C9381E081A3EA
:1009B0000488F589E02D80818064808381E090E067
:1009C000DF91CF91089508951F920F920FB60F9265
:1009D00011242F933F934F938F939F93EF93FF9304
:1009E0008091C00082FD1CC04091C6008091C6016C
:1009F0009091C70101968F7399272091C80130917A
:100A0000C9018217930771F0E091C601F091C70107
:100A1000EA57FE4F40839093C7018093C60102C0FE
:100A20008091C600FF91EF919F918F914F913F91DF
:100A30002F910F900FBE0F901F90189580E291E0BC
:100A40000E945204892B11F00C94E30408951F9224
:100A50000F920FB60F9211242F933F938F939F9372
:100A6000EF93FF9320918201309183018091840163
:100A7000909185012817390731F48091C1008F7D4D
:100A80008093C10014C0E0918401F0918501EE5B78
:100A9000FE4F2081809184019091850101968F7392
:100AA000992790938501809384012093C600FF913C
:100AB000EF919F918F913F912F910F900FBE0F90CB
:100AC0001F901895CF92DF92EF92FF92CF93DF9312
:100AD000EC016A017B01411581EE58076105710542
:100AE000F9F0EC89FD8981E090E008A002C0880F50
:100AF000991F0A94E2F7808360E079E08DE390E04B
:100B0000A70196010E944906215031094109510966
:100B10005695479537952795211580E1380798F028
:100B2000EC89FD89108260E874E88EE190E0A7010D
:100B300096010E94490621503109410951095695F3
:100B4000479537952795E889F9893083EA89FB89A4
:100B5000208319A2EE89FF89408181E090E09C0109
:100B60000C8C02C0220F331F0A94E2F7422B408301
:100B7000EE89FF8940819C010D8C02C0220F331F3A
:100B80000A94E2F7422B4083EE89FF8940819C0161
:100B90000E8C02C0220F331F0A94E2F7422B4083CF
:100BA000EE89FF8920810F8C02C0880F991F0A945B
:100BB000E2F7809582238083DF91CF91FF90EF90C1
:100BC000DF90CF900895109223011092220188EEB9
:100BD00093E0A0E0B0E08093240190932501A093DE
:100BE0002601B09327018AE091E090932101809340
:100BF000200186E891E090932D0180932C0182E4FE
:100C000091E090932F0180932E0185EC90E09093DA
:100C100031018093300184EC90E090933301809314
:100C2000320180EC90E0909335018093340181ECA7
:100C300090E0909337018093360182EC90E090939E
:100C400039018093380186EC90E090933B018093CA
:100C50003A0184E080933C0183E080933D0187E08A
:100C600080933E0185E080933F0181E080934001C5
:100C70000895DB018F939F930E948A06BF91AF91E5
:100C8000A29F800D911DA39F900DB29F900D1124E6
:100C90000895A1E21A2EAA1BBB1BFD010DC0AA1FBD
:100CA000BB1FEE1FFF1FA217B307E407F50720F0D5
:100CB000A21BB30BE40BF50B661F771F881F991F50
:100CC0001A9469F760957095809590959B01AC0199
:100CD000BD01CF010895052E97FB1EF400940E94DC
:100CE000820657FD07D00E94490607FC03D04EF448
:100CF0000C94820650954095309521953F4F4F4F6B
:100D00005F4F089590958095709561957F4F8F4FB7
:100D10009F4F08950E949B06A59F900DB49F900D34
:100D2000A49F800D911D11240895EE0FFF1F0590C3
:100D3000F491E02D0994A29FB001B39FC001A39F3D
:100D4000700D811D1124911DB29F700D811D112404
:080D5000911D0895F894FFCFF6
:100D580001000000960000000000A6047C03520475
:060D68007B0462049B0401
:00000001FF
