:100000000C945D000C9485000C9485000C94850084
:100010000C9485000C9485000C9485000C9485004C
:100020000C9485000C9485000C9485000C9485003C
:100030000C9485000C9485000C9485000C9485002C
:100040000C94AD000C9485000C941D030C9460037B
:100050000C9485000C9485000C9485000C9485000C
:100060000C9485000C94850000000007000201003C
:100070000003040600000000000000000102040864
:100080001020408001020408102001020408102002
:10009000040404040404040402020202020203032E
:1000A0000303030300000000250028002B000000CC
:1000B0000000240027002A001C0411241FBECFEFDB
:1000C000D8E0DEBFCDBF11E0A0E0B1E0E8E3F9E0A9
:1000D00002C005900D92A631B107D9F721E0A6E143
:1000E000B1E001C01D92A93CB207E1F710E0CAEBF4
:1000F000D0E004C02297FE010E949604C83BD107BD
:10010000C9F70E9413020C949A040C94000061E059
:100110008DE00E94A40140E855E260E070E08FE1CC
:1001200091E00C949B0361E08DE00E94DD0164E6A8
:1001300070E080E090E00E941A0160E08DE00E9493
:10014000DD0164E873E080E090E00E941A0160E065
:1001500071E08FE191E00C9479021F920F920FB63B
:100160000F9211242F933F938F939F93AF93BF933D
:100170008091170190911801A0911901B0911A0175
:100180003091160123E0230F2D3720F40196A11D95
:10019000B11D05C026E8230F0296A11DB11D2093B5
:1001A00016018093170190931801A0931901B09341
:1001B0001A0180911B0190911C01A0911D01B09129
:1001C0001E010196A11DB11D80931B0190931C017E
:1001D000A0931D01B0931E01BF91AF919F918F918C
:1001E0003F912F910F900FBE0F901F9018953FB722
:1001F000F89480911B0190911C01A0911D01B09178
:100200001E0126B5A89B05C02F3F19F00196A11D20
:10021000B11D3FBF6627782F892F9A2F620F711D5E
:10022000811D911D42E0660F771F881F991F4A9517
:10023000D1F70895CF92DF92EF92FF92CF93DF93A1
:100240006B017C010E94F700EB01C114D104E104B1
:10025000F10479F00E94F7006C1B7D0B683E73403F
:10026000A0F381E0C81AD108E108F108C851DC4FB9
:10027000ECCFDF91CF91FF90EF90DF90CF9008957A
:10028000789484B5826084BD84B5816084BD85B571
:10029000826085BD85B5816085BDEEE6F0E0808138
:1002A00081608083E1E8F0E0108280818260808359
:1002B000808181608083E0E8F0E0808181608083DC
:1002C000E1EBF0E0808184608083E0EBF0E080810E
:1002D00081608083EAE7F0E08081846080838081B0
:1002E0008260808380818160808380818068808358
:1002F0001092C1000895833081F028F4813099F084
:100300008230A1F008958630A9F08730B9F08430AA
:10031000D1F4809180008F7D03C0809180008F7721
:1003200080938000089584B58F7702C084B58F7D57
:1003300084BD08958091B0008F7703C08091B00094
:100340008F7D8093B0000895CF93DF9390E0FC0100
:10035000E458FF4F2491FC01E057FF4F849188231C
:1003600049F190E0880F991FFC01E255FF4FA591DC
:10037000B4918C559F4FFC01C591D4919FB76111E9
:1003800008C0F8948C91209582238C9388818223D5
:100390000AC0623051F4F8948C91322F3095832347
:1003A0008C938881822B888304C0F8948C91822B53
:1003B0008C939FBFDF91CF9108950F931F93CF939D
:1003C000DF931F92CDB7DEB7282F30E0F901E8594F
:1003D000FF4F8491F901E458FF4F1491F901E05760
:1003E000FF4F04910023C9F0882321F069830E9404
:1003F0007B016981E02FF0E0EE0FFF1FEC55FF4F0E
:10040000A591B4919FB7F8948C91611103C0109598
:10041000812301C0812B8C939FBF0F90DF91CF91DF
:100420001F910F9108950E9440010E948700C7E527
:10043000D3E00E9493002097E1F30E945703F9CF85
:10044000CF92DF92EF92FF920F931F93CF93DF93A0
:100450006C017A01EB01E60EF71E00E010E0CE150C
:10046000DF0561F06991D601ED91FC910190F08179
:10047000E02DC6010995080F191FF1CFC801DF91C2
:10048000CF911F910F91FF90EF90DF90CF90089543
:100490006115710581F0DB010D900020E9F7AD01D8
:1004A00041505109461B570BDC01ED91FC91028034
:1004B000F381E02D099480E090E00895DC01ED9156
:1004C000FC910190F081E02D09940F931F93CF933D
:1004D000DF93EC016DE00E945E028C016AE0CE01C8
:1004E0000E945E02800F911FDF91CF911F910F91AB
:1004F00008950F931F93CF93DF93EC010E9448025E
:100500008C01CE010E946502800F911FDF91CF9177
:100510001F910F910895FC0124853585F901E05C58
:10052000FF4F80819181329620813181821B930B14
:100530008F7399270895FC0184859585FC01E05C03
:10054000FF4F4081518132962081318142175307FC
:1005500041F00190F081E02DE80FF91F808190E0DB
:1005600008958FEF9FEF0895FC0184859585FC0128
:10057000E05CFF4F408151813296208131814217EA
:10058000530779F0A081B181A80FB91F8C91208108
:1005900031812F5F3F4F2F7333273183208390E0CA
:1005A00008958FEF9FEF0895FC0181A1882329F022
:1005B000A489B5898C9186FFFBCF11A20895CF93B2
:1005C000DF93FC0126853785D901A05CBF4F8D9153
:1005D0009C91119701968F739927E901CE5BDF4FAC
:1005E0004881598184179507D9F30D90BC91A02DAE
:1005F000A20FB31F6C93A685B785A05CBF4F119661
:100600009C938E93A689B7892C9181E090E0078C0A
:1006100002C0880F991F0A94E2F7282B2C9381E0DF
:1006200081A30488F589E02D80818064808381E046
:1006300090E0DF91CF91089508951F920F920FB629
:100640000F9211242F933F934F938F939F93EF9388
:10065000FF938091C00082FD1CC04091C600809134
:10066000C5019091C60101968F7399272091C7010A
:100670003091C8018217930771F0E091C501F091A4
:10068000C601EB57FE4F40839093C6018093C5018E
:1006900002C08091C600FF91EF919F918F914F9181
:1006A0003F912F910F900FBE0F901F9018958FE1E3
:1006B00091E00E948B02892B11F00C941C03089589
:1006C0001F920F920FB60F9211242F933F938F9387
:1006D0009F93EF93FF93209181013091820180914C
:1006E0008301909184012817390731F48091C1006A
:1006F0008F7D8093C10014C0E0918301F09184014B
:10070000EF5BFE4F208180918301909184010196DF
:100710008F73992790938401809383012093C6005F
:10072000FF91EF919F918F913F912F910F900FBE6D
:100730000F901F901895CF92DF92EF92FF92CF9378
:10074000DF93EC016A017B01411581EE58076105D9
:100750007105F9F0EC89FD8981E090E008A002C004
:10076000880F991F0A94E2F7808360E079E08DE3B7
:1007700090E0A70196010E947204215031094109BD
:1007800051095695479537952795211580E13807EA
:1007900098F0EC89FD89108260E874E88EE190E0C1
:1007A000A70196010E9472042150310941095109A3
:1007B0005695479537952795E889F9893083EA89D1
:1007C000FB89208319A2EE89FF89408181E090E0B6
:1007D0009C010C8C02C0220F331F0A94E2F7422BBB
:1007E0004083EE89FF8940819C010D8C02C0220F5D
:1007F000331F0A94E2F7422B4083EE89FF89408140
:100800009C010E8C02C0220F331F0A94E2F7422B88
:100810004083EE89FF8920810F8C02C0880F991FC9
:100820000A94E2F7809582238083DF91CF91FF9035
:10083000EF90DF90CF900895109222011092210145
:1008400088EE93E0A0E0B0E0809323019093240130
:10085000A0932501B09326018AE091E090932001B6
:1008600080931F0185E891E090932C0180932B01E8
:1008700081E491E090932E0180932D0185EC90E02E
:100880009093300180932F0184EC90E0909332019B
:100890008093310180EC90E0909334018093330198
:1008A00081EC90E0909336018093350182EC90E0EA
:1008B000909338018093370186EC90E090933A0151
:1008C0008093390184E080933B0183E080933C0175
:1008D00087E080933D0185E080933E0181E0809335
:1008E0003F010895A1E21A2EAA1BBB1BFD010DC0FA
:1008F000AA1FBB1FEE1FFF1FA217B307E407F507D0
:1009000020F0A21BB30BE40BF50B661F771F881FAB
:10091000991F1A9469F760957095809590959B0141
:10092000AC01BD01CF010895EE0FFF1F0590F491BA
:08093000E02D0994F894FFCFBB
:1009380068656C6C6F0000000000DF0220028B020B
:06094800B4029B02D40280
:00000001FF
